:100000000C9434000C9446000C9446000C9446006A
:100010000C9446000C9446000C9446000C94460048
:100020000C9446000C9446000C9446000C94460038
:100030000C9446000C9446000C9446000C94460028
:100040000C9446000C9446000C949E000C944600C0
:100050000C9446000C9446000C9446000C94460008
:100060000C9446000C94460011241FBECFEFD8E03C
:10007000DEBFCDBF21E0A0E0B1E001C01D92A13004
:10008000B207E1F70E946E000C94D0000C940000BF
:100090008AB18E7F8AB98AB182608AB9E0ECF0E0D9
:1000A0001082808182608083E1ECF0E010828081A8
:1000B00088698083E2ECF0E0108280818660808332
:1000C0008FEC90E09093C5008093C40008959091C8
:1000D000C00095FFFCCF8093C6000895F8940E945D
:1000E0004800789488E40E9467008FE40E946700CB
:1000F0008CE40E94670081E40E94670080E20E9415
:1001000067008DE40E94670085E50E9467008EE429
:100110000E94670084E40E9467008FE40E946700E9
:100120008FEF84B98AB91BB815B8FFCF9091C00082
:10013000892F807295FD8091C60008951F920F92BD
:100140000FB60F9211242F933F934F935F936F93AA
:100150007F938F939F93AF93BF93EF93FF930E94EF
:10016000960080930001882351F0880F880F8BB987
:1001700080910001829586958695837085B9FF915F
:10018000EF91BF91AF919F918F917F916F915F910F
:100190004F913F912F910F900FBE0F901F90189588
:0401A000F894FFCF01
:00000001FF
