S00F00005072654C6162342E73726563AB
S11300000C9434000C9446000C9446000C94460066
S11300100C9446000C9446000C9446000C94460044
S11300200C9446000C9446000C9446000C94460034
S11300300C9446000C9446000C9446000C94460024
S11300400C9446000C9446000C9446000C94460014
S11300500C9446000C9446000C9446000C94460004
S11300600C9446000C94460011241FBECFEFD8E038
S1130070DEBFCDBF21E0A0E0B1E001C01D92A230FF
S1130080B207E1F70E948A000C948F000C940000E0
S11300901092C1008FEF84B98AB986E088B988EFDD
S11300A087B915B81BB888B1886088B988B18F7EC4
S11300B088B90895319914C02FEF83EC99E0215049
S11300C080409040E1F700C00000319B09C080915E
S11300D00001909101010196909301018093000128
S11300E0329914C02FEF83EC99E021508040904066
S11300F0E1F700C00000329B09C08091000190919B
S11301000101019790930101809300018091000106
S113011085B908950E9448000E945A00FDCFF894C2
S1050120FFCF0B
S9030000FC
