S00F00005072654C6162342E73726563AB
S11300000C9434000C9451000C9451000C94510045
S11300100C9451000C9451000C9451000C94510018
S11300200C9451000C9451000C9451000C94510008
S11300300C9451000C9451000C9451000C945100F8
S11300400C940D010C9451000C9451000C9451002B
S11300500C9451000C94DE000C9451000C9451004B
S11300600C9451000C94510011241FBECFEFD8E022
S1130070DEBFCDBF11E0A0E0B1E0EEE8F2E002C0E7
S113008005900D92A032B107D9F721E0A0E2B1E0CA
S113009001C01D92A632B207E1F70E94C2000C947F
S11300A045010C9400001092C1008FEF84B98AB905
S11300B086E088B988EF87B915B81BB888B188601D
S11300C088B988B18F7E88B90895ECE7F0E0108292
S11300D080818064808380818F7780838081806247
S11300E08083EAE7F0E010828081806880838081E9
S11300F08860808380818160808380818260808346
S1130100808184608083EEE7F0E080818160808379
S1130110089514BC85E085BD81E080936E0083E67C
S113012086BD0895319914C02FEF83EC99E02150D6
S113013080409040E1F700C00000319B09C08091ED
S11301402401909125010196909325018093240127
S1130150329914C02FEF83EC99E0215080409040F5
S1130160E1F700C00000329B09C080912401909106
S11301702501019790932501809324018091240106
S113018085B90895F8940E9453000E9465000E9466
S1130190890078940E9492008091790090E02091E7
S11301A02401309125018217930721F488B18062DC
S11301B088B9F0CF88B18F7D88B9ECCF1F920F92A8
S11301C00FB60F9211248F939F93EF93FF93E9E758
S11301D0F0E080818F7090E090932301809322015E
S11301E08081807F90E095958795959587959595E5
S11301F08795959587959093210180932001EAE74F
S1130200F0E0808180618083FF91EF919F918F91D5
S11302100F900FBE0F901F9018951F920F920FB65C
S11302200F9211248F939F93EF93FF93EAE7F0E0EB
S113023080818064808398B188E0892788B998B1E7
S113024080E1892788B9439B0BC0E0912201F0919A
S11302502301EE0FFF1FE050FF4F80818BB90AC0CE
S1130260E0912001F0912101EE0FFF1FE050FF4FBC
S113027080818BB983E686BDFF91EF919F918F9129
S11102800F900FBE0F901F901895F894FFCFAB
S113028E3F0006005B004F0066006D007D00070016
S113029E7F006F0077007C0039005E0079007100EA
S9030000FC
