:100000000C9434000C9446000C9446000C9446006A
:100010000C9446000C9446000C9446000C94460048
:100020000C9446000C9446000C9446000C94460038
:100030000C9446000C9446000C9446000C94460028
:100040000C94AB000C9446000C9446000C944600B3
:100050000C9446000C94D5000C9446000C94460079
:100060000C9446000C94460011241FBECFEFD8E03C
:10007000DEBFCDBF21E0A0E0B1E001C01D92A23003
:10008000B207E1F70E9484000C9465030C94000011
:10009000ECE7F0E0108280818064808380818F773C
:1000A0008083808180628083EAE7F0E01082808133
:1000B0008068808380818860808380818160808384
:1000C000808182608083808184608083EEE7F0E0BD
:1000D0008081816080838081826080838081846070
:1000E00080830895ECE7F0E09081907F892B8083F6
:1000F000EAE7F0E080818064808380917A0086FD69
:10010000FCCF809179000895F89414BC15BC0E942E
:10011000480060E074E080E00E94EA0060E074E083
:1001200080E00E94070178948FE39CE90197F1F742
:1001300000C0000080E00E947200809301018FE304
:100140009CE90197F1F700C0000081E00E94720075
:1001500080930001E9CF1F920F920FB60F921124E6
:100160002F933F934F935F936F937F938F939F93BF
:10017000AF93BF93EF93FF93809101010E942401FD
:10018000809100010E944001FF91EF91BF91AF91DA
:100190009F918F917F916F915F914F913F912F919F
:1001A0000F900FBE0F901F9018951F920F920FB6D1
:1001B0000F9211248F93EF93FF93EAE7F0E0808191
:1001C00080618083FF91EF918F910F900FBE0F9010
:1001D0001F9018959AB190649AB994B5936094BDA4
:1001E00091E090936E00882321F084B5806C84BDEB
:1001F00003C084B5806884BD6115744021F485B561
:10020000856085BD089585B5816085BD08959AB1E5
:1002100090629AB994B5936094BD91E090936E000A
:10022000882321F084B5806384BD03C084B58062D7
:1002300084BD6115744021F485B5856085BD089540
:1002400085B5816085BD0895682F70E080E090E0FD
:100250000E946C0220E030E04FE753E40E94C901A5
:1002600020E030E040EF51E40E94F80220E030E06E
:1002700040EC50E40E945D010E943B0267BD08957E
:10028000682F70E080E090E00E946C0220E030E097
:100290004FE753E40E94C90120E030E040EF51E411
:1002A0000E94F80220E030E040EC50E40E945D0142
:1002B0000E943B0268BD08955058BB27AA270E94A0
:1002C00074010C94BE020E94B00238F00E94B70282
:1002D00020F039F49F3F19F426F40C94AD020EF48B
:1002E000E095E7FB0C94A702E92F0E94CF0258F398
:1002F000BA17620773078407950720F079F4A6F50B
:100300000C94F1020EF4E0950B2EBA2FA02D0B01E8
:10031000B90190010C01CA01A0011124FF27591B4A
:1003200099F0593F50F4503E68F11A16F040A22F50
:10033000232F342F4427585FF3CF469537952795C1
:10034000A795F0405395C9F77EF41F16BA0B620BC0
:10035000730B840BBAF09150A1F0FF0FBB1F661F07
:10036000771F881FC2F70EC0BA0F621F731F841F4A
:1003700048F4879577956795B795F7959E3F08F070
:10038000B0CF9395880F08F09927EE0F9795879532
:1003900008950E94DD010C94BE020E94B70258F03D
:1003A0000E94B00240F029F45F3F29F00C94A702AC
:1003B00051110C94F2020C94AD020E94CF0268F32A
:1003C0009923B1F3552391F3951B550BBB27AA270E
:1003D00062177307840738F09F5F5F4F220F331F48
:1003E000441FAA1FA9F335D00E2E3AF0E0E832D010
:1003F00091505040E695001CCAF72BD0FE2F29D013
:10040000660F771F881FBB1F261737074807AB07E4
:10041000B0E809F0BB0B802DBF01FF2793585F4F59
:100420003AF09E3F510578F00C94A7020C94F2022A
:100430005F3FE4F3983ED4F3869577956795B7953B
:10044000F7959F5FC9F7880F911D9695879597F946
:100450000895E1E0660F771F881FBB1F62177307BF
:100460008407BA0720F0621B730B840BBA0BEE1FD4
:1004700088F7E09508950E94D70288F09F5798F07A
:10048000B92F9927B751B0F0E1F0660F771F881F99
:10049000991F1AF0BA95C9F714C0B13091F00E94B3
:1004A000F102B1E008950C94F102672F782F8827AC
:1004B000B85F39F0B93FCCF3869577956795B395DA
:1004C000D9F73EF490958095709561957F4F8F4F49
:1004D0009F4F0895E89409C097FB3EF4909580954E
:1004E000709561957F4F8F4F9F4F9923A9F0F92FFA
:1004F00096E9BB279395F695879577956795B79578
:10050000F111F8CFFAF4BB0F11F460FF1BC06F5F5D
:100510007F4F8F4F9F4F16C0882311F096E911C06F
:10052000772321F09EE8872F762F05C0662371F090
:1005300096E8862F70E060E02AF09A95660F771FA4
:10054000881FDAF7880F9695879597F9089597F998
:100550009F6780E870E060E008959FEF80EC089569
:1005600000240A9416161706180609060895002492
:100570000A9412161306140605060895092E03940C
:10058000000C11F4882352F0BB0F40F4BF2B11F480
:1005900060FF04C06F5F7F4F8F4F9F4F089557FDDF
:1005A0009058440F551F59F05F3F71F04795880FE1
:1005B00097FB991F61F09F3F79F087950895121678
:1005C00013061406551FF2CF4695F1DF08C0161624
:1005D00017061806991FF1CF8695710561050894D5
:1005E0000895E894BB2766277727CB0197F90895EC
:1005F0000E940B030C94BE020E94B00238F00E94CD
:10060000B70220F0952311F00C94A7020C94AD02D0
:1006100011240C94F2020E94CF0270F3959FC1F353
:10062000950F50E0551F629FF001729FBB27F00DA0
:10063000B11D639FAA27F00DB11DAA1F649F6627F5
:10064000B00DA11D661F829F2227B00DA11D621F44
:10065000739FB00DA11D621F839FA00D611D221FFE
:10066000749F3327A00D611D231F849F600D211DE2
:10067000822F762F6A2F11249F5750409AF0F1F065
:1006800088234AF0EE0FFF1FBB1F661F771F881FCE
:1006900091505040A9F79E3F510580F00C94A7025D
:1006A0000C94F2025F3FE4F3983ED4F3869577957D
:1006B0006795B795F795E7959F5FC1F7FE2B880F74
:0E06C000911D9695879597F90895F894FFCFB0
:00000001FF
