:020000020000FC
:100000000FEF0DBF18E01DBF00E80093610004E092
:100010000093610000E004B90FEF07B90FEF0AB9D0
:1000200020E030E040E060E00E941F000E942B00D2
:100030000E9437000E9443000E944F00F5CF189B9A
:1000400008950E9455001899FECF2395A901429565
:10005000430F4BB90895199B08950E9455001999B3
:10006000FECF2A95A9014295430F4BB908951A9BDB
:1000700008950E9455001A99FECF3395A901429523
:10008000430F4BB908951B9B08950E9455001B997F
:10009000FECF3A95A9014295430F4BB908951C9B99
:1000A0000895B901630F68B9089510E000E0139551
:0C00B000123BE9F703950130E9F70895D1
:00000001FF
