:020000020000FC
:100000003F065B4F666D7D077F6F777C395E797148
:100010000FEF0DBF18E01DBF00E80093610003E083
:100020000093610000E004BD05E005BD0EE906BDDA
:1000300000E00093C10000E004B90FEF07B90FEF33
:100040000AB900E010E020E040E0E0E0F0E00E94CB
:100050002C000E943600FBCF189B08950E944000A0
:100060001899FECF2491E39528B90895199B089516
:100070000E9440001999FECF2491EA9528B908956D
:0E00800005B300FFFDCF0EE906BDA89A089556
:00000001FF
