:020000020000FC
:100000003F065B4F666D7D077F6F777C395E797148
:100010000FEF0DBF18E01DBF00E80093610003E083
:100020000093610000E004BD05E005BD0EE906BDDA
:1000300000E00093C10000EF04B90FEF07B90FEF24
:100040000AB900E010E020E030E040E0E0E0F0E05D
:1000500024912BB918B90E9432000E943D000E94E1
:100060004800F9CF189B08950E946100189BF3CFB8
:100070003395E39524912BB90895199B08950E9417
:100080006100199BE8CF3A95EA9524912BB9089520
:100090000E946800139518B9103109F410E0131785
:1000A000D1F610E044FF03C02C9840E008952C9A4C
:1000B00040E1089505B300FFFDCF0EE906BDA89A03
:1000C00008950E945A000E945A000E945A00089502
:1000D0000E945A000E945A000E945A000E945A0030
:1000E0000E945A000E945A000E945A000E945A0020
:0A00F0000E945A000E945A00089571
:00000001FF
