:020000020000FC
:100000000FEF0DBF18E01DBF00E80093610004E092
:100010000093610000E004B90FEF07B90FEF0AB9D0
:1000200005E005BD03E606BD20E030E040E060E00D
:10003000489A489A05B30130E1F703E606BDA89A4D
:100040004898F7CF189B08950E9440001899FECF5A
:100050002395A9014295430F4BB90895199B089523
:100060000E9440001999FECF2A95A9014295430F9D
:100070004BB908951C9B0895B901630F68B90895A1
:020080000895E1
:00000001FF
