S00F00005072654C6162362E73726563A9
S11300000C9434000C9451000C9451000C94510045
S11300100C9451000C9451000C9451000C94510018
S11300200C9451000C9451000C9451000C94510008
S11300300C9451000C9451000C9451000C945100F8
S11300400C9451000C9451000C9413010C94510025
S11300500C9451000C9451000C9451000C945100D8
S11300600C9451000C94510011241FBECFEFD8E022
S1130070DEBFCDBF11E0A0E0B1E0E2EFF8E002C0E6
S113008005900D92A434B107D9F721E0A4E4B1E0BE
S113009001C01D92A335B207E1F70E94C1000C9480
S11300A077040C940000ECE7F0E010828081806417
S11300B0808380818F77808380818F7D8083EAE74E
S11300C0F0E01082808180688083808181608083F9
S11300D0808182608083808184608083EEE7F0E0A9
S11300E0808181608083808182608083808184605C
S11300F080830895ECE7F0E09081907F892B8083E2
S1130100EAE7F0E080818064808380917A0086FD54
S1130110FCCF809178009091790008958AB18E7F08
S11301208AB98AB182608AB9E0ECF0E010828081F9
S113013082608083E1ECF0E01082808188698083B2
S1130140E2ECF0E010828081866080838FEC90E0A6
S11301509093C5008093C40008959091C00095FFCA
S1130160FCCF8093C6000895CF93DF93EC0103C0C6
S11301700E94AD00219688818111FACFDF91CF9141
S113018008950E948E000E94530078948FEF8AB9DC
S113019084B982E291E00E94B40081E091E00E947F
S11301A0B4001BB815B880910001880F880F8BB973
S11301B080910001829586958695837085B980919A
S11301C04401813081F780E00E947A0080934601E7
S11301D0909347019F938F9383E191E09F938F9333
S11301E088E491E09F938F930E948D0186E191E0D2
S11301F00E94B40088E491E00E94B40081E191E09F
S11302000E94B40081E291E00E94B40081E091E098
S11302100E94B400109244010F900F900F900F9021
S11302200F900F90C0CF1F920F920FB60F92112410
S11302302F933F934F935F936F937F938F939F93EA
S1130240AF93BF93EF93FF938091C60080935201C5
S113025090914501992321F08091520180930001EE
S11302608091C00085FFFCCF992399F09F5F909304
S11302704501923070F01092450181E191E00E94B5
S1130280B40081E291E00E94B40081E091E00E9418
S1130290B40080914401813091F480915201803303
S11302A071F41092440181E191E00E94B40081E272
S11302B091E00E94B40081E091E00E94B40080913A
S11302C05201813341F480914501811115C081E0CF
S11302D08093440111C080915201823369F480916A
S11302E04501811109C08AE391E00E94B40081E0D4
S11302F0809345011BB815B8FF91EF91BF91AF9161
S11303009F918F917F916F915F914F913F912F9129
S11303100F900FBE0F901F901895AEE0B0E0E3E988
S1130320F1E00C944E040D891E8986E08C831A83B7
S113033009838FEF9FE79E838D83AE01475E5F4FF6
S11303406F89788DCE0101960E94AF01EF81F88507
S1130350E00FF11F10822E96E4E00C946A04ABE0E7
S1130360B0E0E5EBF1E00C9440046C017B018A0100
S1130370FC0117821682838181FFCCC1CE010196D4
S11303803C01F6019381F70193FD859193FF8191DF
S11303907F01882309F4BAC1853239F493FD85912C
S11303A093FF81917F01853229F4B60190E00E9488
S11303B0A603E7CF912C212C312CFFE1F315D8F0C3
S11303C08B3279F038F4803279F08332A1F4232D22
S11303D020611DC08D3261F0803369F4232D2160CA
S11303E016C0832D8260382EE32DE4603E2E2AC091
S11303F0F32DF8601DC037FC2DC020ED280F2A30E6
S113040040F08E32B9F436FC81C1232D2064322EA3
S113041019C036FE06C08AE0989E200D1124922E43
S113042011C0EAE02E9E200D1124222EF32DF0623D
S11304303F2E08C08C3621F4832D8068382E02C0EC
S1130440883641F4F70193FD859193FF81917F01F3
S11304508111B3CF982F9F7D9554933028F40C5F6E
S11304601F4F9FE399830DC0833631F0833771F0BA
S1130470833509F059C021C0F801808189830E5F5A
S11304801F4F88248394912C530113C02801F2E058
S11304904F0E511CF801A080B18036FE03C0692DB7
S11304A070E002C06FEF7FEFC5010E949B034C0117
S11304B08201F32DFF773F2E16C0280122E0420E61
S11304C0511CF801A080B18036FE03C0692D70E094
S11304D002C06FEF7FEFC5010E9490034C01F32D22
S11304E0F0683F2E820133FC1BC0822D90E08816F9
S11304F09906B0F4B60180E290E00E94A6032A9423
S1130500F4CFF50137FC859137FE81915F01B60187
S113051090E00E94A60321102A9421E0821A9108F7
S11305208114910471F7E8C0843611F0893641F5DD
S1130530F80137FE07C060817181828193810C5F6D
S11305401F4F08C060817181072E000C880B990B26
S11305500E5F1F4FF32DFF763F2E97FF09C0909536
S11305608095709561957F4F8F4F9F4FF0683F2E18
S11305702AE030E0A3010E94E203882E861845C0D9
S1130580853731F4232D2F7EB22E2AE030E025C0AA
S1130590932D997FB92E8F36C1F018F4883579F0F0
S11305A0B5C0803719F0883721F0B0C0E92FE06179
S11305B0BE2EB4FE0DC0FB2DF460BF2E09C034FE68
S11305C00AC0292F2660B22E06C028E030E005C0FC
S11305D020E130E002C020E132E0F801B7FE07C0BC
S11305E060817181828193810C5F1F4F06C060819D
S11305F0718180E090E00E5F1F4FA3010E94E2032F
S1130600882E8618FB2DFF773F2E36FE0DC0232D36
S11306102E7FA22E891458F434FE0BC032FC09C07C
S1130620832D8E7EA82E05C0B82CA32C03C0B82C15
S113063001C0B92CA4FE0FC0FE01E80DF11D80819C
S1130640803321F49A2D997EA92E09C0A2FE06C0FA
S1130650B394B39404C08A2D867809F0B394A3FCB0
S113066011C0A0FE06C0B21488F4280C922C9B186A
S11306700EC0B21460F4B60180E290E00E94A603BA
S1130680B394F7CFB21418F42B1802C0982C212C71
S1130690A4FE10C0B60180E390E00E94A603A2FE6F
S11306A017C0A1FC03C088E790E002C088E590E091
S11306B0B6010CC08A2D867859F0A1FE02C08BE2E7
S11306C001C080E2A7FC8DE2B60190E00E94A6037F
S11306D0891438F4B60180E390E00E94A6039A944A
S11306E0F7CF8A94F301E80DF11D8081B60190E003
S11306F00E94A6038110F5CF222009F442CEB60150
S113070080E290E00E94A6032A94F6CFF601868147
S1130710978102C08FEF9FEF2B96E2E10C945C046B
S1130720FC010590615070400110D8F780959095B8
S11307308E0F9F1F0895FC016150704001900110BD
S1130740D8F7809590958E0F9F1F08950F931F9350
S1130750CF93DF93FB01238121FD03C08FEF9FEF34
S11307602CC022FF16C0468157812481358142174F
S1130770530744F4A081B1819D012F5F3F4F318322
S113078020838C93268137812F5F3F4F37832683C5
S113079014C08B01EC01FB010084F185E02D099567
S11307A0892BE1F6D80116968D919C9117970196A5
S11307B017969C938E931697CE01DF91CF911F913C
S11307C00F910895FA01AA27283051F1203181F1BF
S11307D0E8946F936E7F6E5F7F4F8F4F9F4FAF4F45
S11307E0B1E03ED0B4E03CD0670F781F891F9A1F58
S11307F0A11D680F791F8A1F911DA11D6A0F711D0C
S1130800811D911DA11D20D009F468943F912AE017
S1130810269F11243019305D3193DEF6CF010895FF
S1130820462F4770405D4193B3E00FD0C9F7F6CF30
S1130830462F4F70405D4A3318F0495D31FD4052F8
S1130840419302D0A9F7EACFB4E0A695979587958E
S113085077956795BA95C9F700976105710508956D
S11308609B01AC010A2E0694579547953795279519
S1130870BA95C9F7620F731F841F951FA01D0895B1
S11308802F923F924F925F926F927F928F929F929C
S1130890AF92BF92CF92DF92EF92FF920F931F938A
S11308A0CF93DF93CDB7DEB7CA1BDB0B0FB6F8943B
S11308B0DEBF0FBECDBF09942A88398848885F847B
S11308C06E847D848C849B84AA84B984C884DF80EC
S11308D0EE80FD800C811B81AA81B981CE0FD11DD0
S11308E00FB6F894DEBF0FBECDBFED010895F894A6
S10508F0FFCF34
S11308F23020322E20456E7669617220417363691D
S1130902690A002564000A566F6C74616A653A20AC
S1130912000A20312E204C65657220706F74656E5A
S113092263696F6D6574726F0A000A417363696962
S10709323A20000063
S9030000FC
